:020000040800F2
:1000000000200020B90B0008650B00086B0B0008EE
:1000100000000000000000000000000000000000E0
:10002000000000000000000000000000710B00084C
:1000300000000000000000007B0B0008850B00089A
:10004000090C0008090C0008090C0008090C00083C
:10005000090C0008090C0008090C0008090C00082C
:1000600000000000090C0008090C0008090C000839
:10007000090C0008090C0008090C0008090C00080C
:10008000090C0008090C0008090C0008090C0008FC
:1000900000000000090C0008090C0008090C000809
:1000A000090C0008090C0008090C0008950B000851
:1000B000090C0008090C000800000000090C0008E9
:1000C00010B5064C2378002B07D1054B002B02D02E
:1000D000044800E000BF0123237010BD1C00002075
:1000E0000000000024440008044B10B5002B03D08E
:1000F0000349044800E000BF10BDC04600000000F6
:100100002000002024440008002243088B4274D3BE
:1001100003098B425FD3030A8B4244D3030B8B4208
:1001200028D3030C8B420DD3FF22090212BA030C11
:100130008B4202D31212090265D0030B8B4219D3F2
:1001400000E0090AC30B8B4201D3CB03C01A524112
:10015000830B8B4201D38B03C01A5241430B8B425A
:1001600001D34B03C01A5241030B8B4201D30B0343
:10017000C01A5241C30A8B4201D3CB02C01A52416A
:10018000830A8B4201D38B02C01A5241430A8B422D
:1001900001D34B02C01A5241030A8B4201D30B0216
:1001A000C01A5241CDD2C3098B4201D3CB01C01A30
:1001B000524183098B4201D38B01C01A524143093A
:1001C0008B4201D34B01C01A524103098B4201D328
:1001D0000B01C01A5241C3088B4201D3CB00C01A95
:1001E000524183088B4201D38B00C01A524143080D
:1001F0008B4201D34B00C01A5241411A00D2014632
:10020000524110467047FFE701B5002000F0F0F8BA
:1002100002BDC0460029F7D076E7704703460B437E
:100220007FD4002243088B4274D303098B425FD3EF
:10023000030A8B4244D3030B8B4228D3030C8B421B
:100240000DD3FF22090212BA030C8B4202D3121201
:10025000090265D0030B8B4219D300E0090AC30BD6
:100260008B4201D3CB03C01A5241830B8B4201D383
:100270008B03C01A5241430B8B4201D34B03C01A6C
:100280005241030B8B4201D30B03C01A5241C30AE4
:100290008B4201D3CB02C01A5241830A8B4201D355
:1002A0008B02C01A5241430A8B4201D34B02C01A3F
:1002B0005241030A8B4201D30B02C01A5241CDD2E4
:1002C000C3098B4201D3CB01C01A524183098B422F
:1002D00001D38B01C01A524143098B4201D34B0118
:1002E000C01A524103098B4201D30B01C01A52417B
:1002F000C3088B4201D3CB00C01A524183088B4202
:1003000001D38B00C01A524143088B4201D34B00EA
:10031000C01A5241411A00D201465241104670475C
:100320005DE0CA0F00D04942031000D34042534061
:1003300000229C4603098B422DD3030A8B4212D321
:10034000FC22890112BA030A8B420CD38901921153
:100350008B4208D3890192118B4204D389013AD090
:10036000921100E08909C3098B4201D3CB01C01A65
:10037000524183098B4201D38B01C01A5241430978
:100380008B4201D34B01C01A524103098B4201D366
:100390000B01C01A5241C3088B4201D3CB00C01AD3
:1003A000524183088B4201D38B00C01A5241D9D2EB
:1003B00043088B4201D34B00C01A5241411A00D26C
:1003C0000146634652415B10104601D34042002B68
:1003D00000D54942704763465B1000D3404201B5E7
:1003E000002000F005F802BD0029F8D016E770479C
:1003F0007047C046002B11D1002A0FD1002900D12F
:10040000002802D00021C943080007B4024802A115
:100410004018029003BDC046D9FFFFFF03B46846F1
:1004200001B5029800F006F8019B9E4602B00CBC94
:100430007047C046F0B557464E464546DE46E0B5E5
:1004400004000D009246994683B08B4230D82DD0DF
:100450004946504600F0D8F829000600200000F078
:10046000D3F8331A9846203B9B4633D45A4653461A
:10047000934042461F00534693401E00AF423AD875
:10048000AF4200D178E05B46A41BBD41002B00DAEF
:1004900075E0002200230092019301235A46934005
:1004A0000193012342469340009328E08242CFD932
:1004B00000220023009201930C9B002B01D01C60B2
:1004C0005D600098019903B0F0BCBB46B246A946F6
:1004D000A046F0BD424620239B1A5246DA404146D0
:1004E00013004A468A40170042461F435346934032
:1004F0001E00AF42C4D9002200230092019343465C
:10050000002BD9D0FB0772081A4346467B080EE041
:10051000AB4201D1A2420CD8A41A9D41012024195A
:100520006D410021013E24184D41002E06D0AB4202
:10053000EED9013E24196D41002EF8D100980199A1
:100540005B4600196941002B24DB2B005A464446C8
:10055000D3402A00E2401C005B461500002B2ADB3A
:1005600026009E40330026004746BE403200801AD7
:100570009941009001919FE7A342BCD883E742468E
:10058000202300219B1A0022009101920122DA40CF
:10059000019286E7424620239B1A2A0046469A404B
:1005A0002300F340444613432A00E2401C005B460C
:1005B0001500002BD4DA42462F0020232600974056
:1005C0009B1ADE403B003343CDE7C0461C2101238C
:1005D0001B04984201D3000C10391B0A984201D326
:1005E000000A08391B09984201D30009043902A204
:1005F000105C40187047C04604030202010101016B
:10060000000000000000000010B5002903D1FFF732
:10061000DDFF203002E00800FFF7D8FF10BDC04624
:1006200080B582B000AF7860154B1B781A00154B6F
:100630009B5C0A3B5A425341DBB21A00124B1A70C0
:10064000114B1B78002B07D00D4B1A780F4B1A70EB
:100650000B4B00221A7005E0094B1B780133DAB20C
:10066000074B1A70064B1B781A00064BD118084B23
:100670000122180001F068FFC046BD4602B080BDEF
:100680003001002020010020320100203101002033
:100690008C00002080B500AF00F0B8FA00F048F8F8
:1006A00000F01CF900F08CF800F0CAF819491A4B58
:1006B0000122180001F048FFFA239B00180000F007
:1006C0002BFB164914486423102201F0A1FE144BA1
:1006D0001B78002BF0D013490F486423022201F04D
:1006E00097FE114B1B789AB20A490B48642301F01C
:1006F0008FFE0E4908486423042201F089FE054B51
:1007000010220021180003F085FE054B00221A700C
:10071000D2E7C046200100208C000020000000200D
:10072000320100203C440008310100204044000810
:1007300090B593B000AF10243B19180038231A006D
:10074000002103F067FE3B00180010231A0000216F
:1007500003F060FE80239B00180000F05BFF3B1954
:1007600002221A603B1980225200DA603B190022F3
:100770001A613B1940225A613B190022DA613B1988
:10078000180000F093FF031E01D000F00BF93B00AE
:1007900007221A603B0000225A603B0000229A6048
:1007A0003B000022DA603B000021180001F098FABB
:1007B000031E01D000F0F6F8C046BD4613B090BD50
:1007C00080B500AF1B4B1C4A1A601A4B1B4A5A607B
:1007D000184B00229A60174B0122DA60154B002259
:1007E0001A61144B00225A61124B00229A61114B7C
:1007F0000022DA610F4B00221A620E4B180000F043
:10080000DBFD031E01D000F0CDF80A4B00211800DB
:1008100000F068FE031E01D000F0C4F8054B002173
:10082000180000F0ABFE031E01D000F0BBF8C0467C
:10083000BD4680BD38000020005800401A06100058
:1008400080B500AF234B244A1A60224BE1225202AA
:100850005A60204B00229A601E4B0022DA601D4B2A
:1008600000221A611B4B0C225A611A4B00229A611A
:10087000184B0022DA61174B00221A62154B002236
:100880005A62144B00229A62124B180001F06AFD62
:10089000031E01D000F086F80E4B0021180003F073
:1008A000B5FC031E01D000F07DF80A4B00211800B2
:1008B00003F0ECFC031E01D000F074F8054B1800A7
:1008C00003F06AFC031E01D000F06CF8C046BD4680
:1008D00080BDC0468C0000200038014090B589B032
:1008E00000AF0C243B19180014231A00002103F058
:1008F00091FD2A4B5A6B294B02210A435A63274B1D
:100900005B6B02221340BB60BB68244B5A6B234BCA
:1009100020210A435A63214B5B6B202213407B60EA
:100920007B681E4B5A6B1D4B01210A435A631B4BBC
:100930005B6B012213403B603B6880239901A0233D
:10094000DB050022180000F019FD3B1904221A6093
:100950003B1900225A603B1900229A603B19104A49
:100960001900100000F0A6FB21007B1880229201E4
:100970001A607B1801225A607B1800229A607B184B
:100980000022DA607A18A023DB051100180000F0BD
:1009900091FBC046BD4609B090BDC0460010024064
:1009A0000014005080B500AF72B6C046FEE70000EC
:1009B00080B582B000AF0F4B1A6C0E4B01210A4379
:1009C0001A640C4B1B6C012213407B607B68094B43
:1009D000DA6B084B802149050A43DA63054BDA6B71
:1009E00080235B0513403B603B68C046BD4602B0B8
:1009F00080BDC0460010024090B58BB000AF78605B
:100A000014243B19180014231A00002103F002FDDE
:100A10007B681B681C4A934231D11C4B5A6B1B4BA1
:100A200001210A435A63194B5B6B012213403B615E
:100A30003B693B19C02252011A6021007B18122227
:100A40005A607B1800229A607B180022DA607B18BB
:100A500006221A617A18A023DB051100180000F0A5
:100A600029FB0A4BDA6B094B8021C9030A43DA637D
:100A7000064BDA6B8023DB031340FB60FB68C04648
:100A8000BD460BB090BDC04600580040001002406B
:100A900090B595B000AF78603C23FB181800142384
:100AA0001A00002103F0B6FC10243B1918002C2377
:100AB0001A00002103F0AEFC7B681B68264A9342B3
:100AC00045D13B1901221A603B1900225A603B199B
:100AD000180001F0AFFA031E01D0FFF763FF1F4BB0
:100AE0001A6C1E4B8021C9010A431A641B4B1A6CF5
:100AF0008023DB011340FB60FB68184B5A6B174BDC
:100B000002210A435A63154B5B6B02221340BB6000
:100B1000BB683C217B18C0221A607B1802225A60F5
:100B20007B1800229A607B180022DA607B18002272
:100B30001A617B180A4A1900100000F0BBFA002263
:100B400000211B2000F0B8F91B2000F0CAF9C046B4
:100B5000BD4615B090BDC0460038014000100240AF
:100B60000004005080B500AFFEE780B500AFFEE79F
:100B700080B500AFC046BD4680BD80B500AFC04661
:100B8000BD4680BD80B500AF00F0AAF8C046BD46A6
:100B900080BD000080B500AF034B180001F032FDAE
:100BA000C046BD4680BDC0468C00002080B500AF69
:100BB000C046BD4680BD00000D488546FFF7F6FFE4
:100BC0000C480D490D4A002302E0D458C4500433A8
:100BD000C4188C42F9D30A4A0A4C002301E013607E
:100BE0000432A242FBD303F0F1FBFFF753FDFEE713
:100BF00000200020000000201C000020E04400082D
:100C00001C00002038010020FEE7000080B582B003
:100C100000AFFB1D00221A700B4B1A680A4B802193
:100C200049000A431A60032000F010F8031E03D0A5
:100C3000FB1D01221A7001E0FFF7BAFEFB1D1B78B5
:100C40001800BD4602B080BD0020024090B585B0BE
:100C500000AF78600F23FB1800221A701D4B1B7821
:100C6000002B2BD01C4B1C681A4B1B781900FA2345
:100C70009800FFF749FA030019002000FFF744FA33
:100C80000300180000F03DF9031E12D17B68032B0E
:100C90000AD8796801235B420022180000F00CF9A1
:100CA0000E4B7A681A600DE00F23FB1801221A70B0
:100CB00008E00F23FB1801221A7003E00F23FB1832
:100CC00001221A700F23FB181B781800BD4605B0CF
:100CD00090BDC04618000020100000201400002025
:100CE00080B500AF054B1B781A00054B1B68D21866
:100CF000034B1A60C046BD4680BDC04618000020A8
:100D00003401002080B500AF024B1B681800BD46BF
:100D100080BDC0463401002080B584B000AF78604B
:100D2000FFF7F0FF0300BB607B68FB60FB680133EB
:100D300005D00A4B1B781A00FB689B18FB60C04665
:100D4000FFF7E0FF0200BB68D31AFA689A42F7D8AF
:100D5000C046C046BD4604B080BDC0461800002055
:100D600080B582B000AF0200FB1D1A70FB1D1B781E
:100D70007F2B09D8FB1D1B781A001F231A40044B38
:100D8000012191400A001A60C046BD4602B080BDF4
:100D900000E100E090B583B000AF02003960FB1DB8
:100DA0001A70FB1D1B787F2B28D82F4AFB1D1B7840
:100DB0005BB29B08C0339B009B58FA1D1278110050
:100DC00003220A40D200FF2191400A00D2431A4078
:100DD00011003B689B01FF221A40FB1D1B78180085
:100DE00003230340DB009A401F48FB1D1B785BB2C6
:100DF0009B080A43C0339B001A5031E01B4AFB1D7D
:100E00001B7819000F230B40083B9B0806339B00FF
:100E1000D31804331B68FA1D1278110003220A400C
:100E2000D200FF2191400A00D2431A4011003B68D2
:100E30009B01FF221A40FB1D1B781800032303406F
:100E4000DB009A400948FB1D1B781C000F23234040
:100E5000083B9B080A4306339B00C31804331A60FF
:100E6000C046BD4603B090BD00E100E000ED00E0EB
:100E700080B582B000AF78607B685A1E80235B0427
:100E80009A4201D3012310E00A4B7A68013A5A6072
:100E900001235B4203211800FFF77CFF054B002272
:100EA0009A60044B07221A6000231800BD4602B066
:100EB00080BDC04610E000E080B584B000AFB960EE
:100EC0007A600F217B18021C1A70BA687B181B7895
:100ED0005BB211001800FFF75DFFC046BD4604B0CD
:100EE00080BD80B582B000AF0200FB1D1A70FB1DF3
:100EF0001B785BB21800FFF733FFC046BD4602B057
:100F000080BD80B582B000AF78607B681800FFF7C5
:100F1000AFFF03001800BD4602B080BD80B582B0AF
:100F200000AF78607B68002B01D1012350E07B6823
:100F300025229B5CDBB2022B08D07B680422DA639B
:100F40007B68242200219954012341E07B681B68BF
:100F50001A687B681B680E218A431A607B685B6C89
:100F60001A687B685B6C1C490A401A607B681B68C6
:100F70001A687B681B6801218A431A60174B5968FD
:100F80007B681B6C1C22134001229A40134B0A43BE
:100F90005A607B689B6C7A68D26C5A607B681B6D68
:100FA000002B0CD07B681B6D1A687B681B6D0A498F
:100FB0000A401A607B685B6D7A68926D5A607B6844
:100FC0002522012199547B68242200219954002371
:100FD0001800BD4602B080BDFFFEFFFF00000240CA
:100FE00080B584B000AF78600F217B1800221A70A2
:100FF0007B6825229B5CDBB2022B06D07B68042237
:10100000DA637B1801221A7049E07B681B681A6852
:101010007B681B680E218A431A607B681B681A680C
:101020007B681B6801218A431A607B685B6C1A68C5
:101030007B685B6C1D490A401A601D4B59687B68D0
:101040001B6C1C22134001229A40194B0A435A6020
:101050007B689B6C7A68D26C5A607B681B6D002B36
:101060000CD07B681B6D1A687B681B6D0F490A40AA
:101070001A607B685B6D7A68926D5A607B68252286
:10108000012199547B682422002199547B689B6B31
:10109000002B04D07B689B6B7A68100098470F2365
:1010A000FB181B781800BD4604B080BDFFFEFFFF93
:1010B0000000024080B586B000AF78603960002340
:1010C0007B6147E13B681B6801217A6991400A0016
:1010D0001340FB60FB68002B00D138E13B685B6884
:1010E00003221340012B05D03B685B6803221340A9
:1010F000022B30D17B689B683B617B695B000322DC
:101100009A401300DA433B6913403B613B68DA685D
:101110007B695B009A4013003A6913433B617B682B
:101120003A699A607B685B683B6101227B699A40FF
:101130001300DA433B6913403B613B685B681B0962
:1011400001221A407B699A4013003A6913433B61BC
:101150007B683A695A603B685B6803221340032B43
:1011600017D07B68DB683B617B695B0003229A4098
:101170001300DA433B6913403B613B689A687B6923
:101180005B009A4013003A6913433B617B683A69FC
:10119000DA603B685B6803221340022B23D17B6932
:1011A000DA087B6808329200D3583B617B690722DA
:1011B00013409B000F229A401300DA433B6913400F
:1011C0003B613B681A697B6907210B409B009A4091
:1011D00013003A6913433B617B69DA087B68083284
:1011E00092003969D1507B681B683B617B695B0069
:1011F00003229A401300DA433B6913403B613B688A
:101200005B6803221A407B695B009A4013003A69CD
:1012100013433B617B683A691A603B685A68C02394
:101220009B02134000D192E0504A7B699B0818331F
:101230009B009B583B617B6903221340DB000F221C
:101240009A401300DA433B6913403B617A68A0235C
:10125000DB059A4213D07B68454A93420DD07B68E8
:10126000444A934207D07B68434A934201D1032307
:1012700006E0052304E0022302E0012300E000234E
:101280007A6903210A40D20093403A6913433B61D3
:1012900036497B699B0818339B003A695A50334B97
:1012A0001B683B61FB68DA433B6913403B613B6869
:1012B0005A6880235B03134003D03A69FB681343E9
:1012C0003B612A4B3A691A60284B5B683B61FB68BB
:1012D000DA433B6913403B613B685A6880239B03B8
:1012E000134003D03A69FB6813433B611F4B3A69D3
:1012F0005A601E4A8423D3583B61FB68DA433B693A
:1013000013403B613B685A6880239B02134003D023
:101310003A69FB6813433B61144984223B698B5053
:10132000124A8023D3583B61FB68DA433B69134080
:101330003B613B685A6880235B02134003D03A69E3
:10134000FB6813433B61094980223B698B507B69F1
:1013500001337B613B681A687B69DA40131E00D059
:10136000B0E6C046C046BD4606B080BD001802408B
:101370000004005000080050000C005080B582B0FE
:1013800000AF786008001100BB1C021C1A807B1C97
:101390000A1C1A707B1C1B78002B04D0BB1C1A88FB
:1013A0007B689A6103E0BB1C1A887B689A62C0461E
:1013B000BD4602B080BD000080B582B000AF78604D
:1013C0007B68002B01D1012382E07B6841229B5C7A
:1013D000DBB2002B07D17B684022002199547B6847
:1013E0001800FFF709FB7B684122242199547B6890
:1013F0001B681A687B681B6801218A431A607B6836
:101400005A687B681B6834490A401A617B681B680C
:101410009A687B681B6831490A409A607B68DB6880
:10142000012B08D17B689A687B681B6880210902C0
:101430000A439A6007E07B689A687B681B6884218E
:1014400009020A439A607B68DB68022B04D17B683F
:101450001B68802212015A607B681B685A687B688F
:101460001B681F490A435A607B681B68DA687B68FF
:101470001B681A490A40DA607B681A697B685B69F5
:101480001A4311007B689B691A027B681B680A4338
:10149000DA607B68D9697B681A6A7B681B680A43D3
:1014A0001A607B681B681A687B681B6801210A4305
:1014B0001A607B6800225A647B684122202199547B
:1014C0007B6800221A637B68422200219954002322
:1014D0001800BD4602B080BDFFFFFFF0FF7FFFFF99
:1014E0000080000280B582B000AF786039607B6810
:1014F00041229B5CDBB2202B38D17B6840229B5C75
:10150000012B01D1022332E07B6840220121995452
:101510007B684122242199547B681B681A687B6888
:101520001B6801218A431A607B681B681A687B6804
:101530001B6811490A401A607B681B6819687B6840
:101540001B683A680A431A607B681B681A687B68E4
:101550001B6801210A431A607B68412220219954AB
:101560007B68402200219954002300E002231800E8
:10157000BD4602B080BDC046FFEFFFFF80B584B01E
:1015800000AF786039607B6841229B5CDBB2202B26
:1015900039D17B6840229B5C012B01D1022333E0CF
:1015A0007B684022012199547B684122242199546F
:1015B0007B681B681A687B681B6801218A431A6074
:1015C0007B681B681B68FB60FB68114A1340FB606B
:1015D0003B681B02FA681343FB607B681B68FA6870
:1015E0001A607B681B681A687B681B6801210A43C4
:1015F0001A607B684122202199547B684022002197
:101600009954002300E002231800BD4604B080BDB9
:10161000FFF0FFFF80B584B000AF7860194B1B6806
:10162000194A13401900174B7A680A431A607A68FE
:1016300080239B009A421FD1144B1A6813005B0051
:101640009B185B0012491800FEF75EFD0300013392
:10165000FB6008E0FB68002B03D0FB68013BFB60EC
:1016600001E0032309E0074B5A698023DB001A409D
:101670008023DB009A42EDD000231800BD4604B061
:1016800080BDC04600700040FFF9FFFF1000002041
:1016900040420F0080B500AF034B9A68E023DB01A6
:1016A00013401800BD4680BD0010024080B588B0D0
:1016B00000AF78607B68002B01D10123FEE27B68DC
:1016C0001B680122134000D17CE0C34B9B68382289
:1016D0001340BB61C04BDB68032213407B61BB69D5
:1016E000102B02D17B69032B02D0BB69082B0BD1D5
:1016F000B94B1A6880239B02134062D07B685B68F9
:10170000002B5ED10123D9E27B685A6880235B02FB
:101710009A4207D1B04B1A68AF4B802149020A4365
:101720001A6020E07B685A68A023DB029A420ED13F
:10173000A94B1A68A84B8021C9020A431A60A64B1C
:101740001A68A54B802149020A431A600BE0A24B9C
:101750001A68A14BA1490A401A609F4B1A689E4B18
:101760009F490A401A607B685B68002B14D0FFF722
:10177000C9FA03003B6108E0FFF7C4FA02003B69C5
:10178000D31A642B01D9032398E2934B1A68802360
:101790009B021340F0D015E0FFF7B4FA03003B6161
:1017A00008E0FFF7AFFA02003B69D31A642B01D9B6
:1017B000032383E2884B1A6880239B021340F0D1F5
:1017C00000E0C0467B681B680222134000D199E00C
:1017D000814B9B6838221340BB617F4BDB6803223F
:1017E00013407B61BB69102B02D17B69022B02D0B5
:1017F000BB69002B35D1784B1A688023DB0013407E
:1018000005D07B68DB68002B01D1012356E2724BC7
:101810005B68744A134019007B685B691A026E4B5F
:101820000A435A60BB69002B12D16B4B1B686E4A8E
:10183000134019007B681A69674B0A431A60664BAC
:101840001B68DB0A07221340684ADA40684B1A60BB
:10185000684B1B681800FFF7F9F9031E51D00123EC
:101860002CE27B68DB68002B30D05B4B1B685E4A48
:10187000134019007B681A69574B0A431A60564B8C
:101880001A68554B802149000A431A60FFF73AFA5B
:1018900003003B6108E0FFF735FA02003B69D31A09
:1018A000022B01D9032309E24B4B1A688023DB008A
:1018B0001340F0D0484B5B684A4A134019007B68DC
:1018C0005B691A02444B0A435A601BE0424B1A6898
:1018D000414B49490A401A60FFF714FA03003B6183
:1018E00008E0FFF70FFA02003B69D31A022B01D977
:1018F0000323E3E1384B1A688023DB001340F0D167
:1019000000E0C0467B681B680822134047D0324B7A
:101910009B6838221340182B0AD12F4B1B6E0222D2
:1019200013403CD07B689B69002B38D10123C5E173
:101930007B689B69002B19D0274B1A6E264B01211F
:101940000A431A66FFF7DEF903003B6108E0FFF780
:10195000D9F902003B69D31A022B01D90323ADE167
:101960001D4B1B6E02221340F1D018E01A4B1A6E69
:10197000194B01218A431A66FFF7C4F903003B6142
:1019800008E0FFF7BFF902003B69D31A022B01D927
:10199000032393E1104B1B6E02221340F1D17B68AD
:1019A0001B680422134000D1C6E01F23FB1800224D
:1019B0001A70094B9B6838221340202B1ED1064B0E
:1019C000DB6D0222134000D1B6E07B689B68002BE0
:1019D00000D0B1E0012371E100100240FFFFFEFFE3
:1019E000FFFFFBFFFF80FFFFFFC7FFFF0024F400A6
:1019F0001000002014000020FFFEFFFFB14BDA6B47
:101A000080235B05134001D1012300E00023002B5C
:101A100011D0AC4BDA6BAB4B802149050A43DA633A
:101A2000A84BDA6B80235B051340FB60FB681F2328
:101A3000FB1801221A70A44B1A6880235B00134024
:101A40001AD1A14B1A68A04B802149000A431A60A1
:101A5000FFF758F903003B6108E0FFF753F9020074
:101A60003B69D31A022B01D9032327E1964B1A684D
:101A700080235B001340F0D07B689B68012B06D16C
:101A8000904BDA6D8F4B01210A43DA651CE07B68CD
:101A90009B68052B0CD18B4BDA6D8A4B04210A43D2
:101AA000DA65884BDA6D874B01210A43DA650BE072
:101AB000844BDA6D834B01218A43DA65814BDA6D01
:101AC000804B04218A43DA657B689B68002B14D025
:101AD000FFF718F903003B6109E0FFF713F9020073
:101AE0003B69D31A794A934201D90323E6E0754B47
:101AF000DB6D02221340F0D013E0FFF703F903007F
:101B00003B6109E0FFF7FEF802003B69D31A6F4A18
:101B1000934201D90323D1E06A4BDB6D02221340CB
:101B2000F0D11F23FB181B78012B05D1654BDA6B15
:101B3000644B67490A40DA637B68DB69002B00D19C
:101B4000BBE0604B9B6838221340102B00D17BE038
:101B50007B68DB69022B56D15A4B1A68594B5D4999
:101B60000A401A60FFF7CEF803003B6108E0FFF778
:101B7000C9F802003B69D31A022B01D903239DE067
:101B8000504B1A6880239B041340F0D14D4BDB6807
:101B9000514A134019007B681A6A7B685B6A1A43D2
:101BA0007B689B6A1B021A437B68DB6A1A437B686B
:101BB0001B6B1A437B685B6B1A43424B0A43DA6028
:101BC000404B1A683F4B802149040A431A603D4B41
:101BD000DA683C4B802149050A43DA60FFF792F846
:101BE00003003B6108E0FFF78DF802003B69D31A60
:101BF000022B01D9032361E0324B1A6880239B0436
:101C00001340F0D059E02F4B1A682E4B31490A404F
:101C10001A60FFF777F803003B6108E0FFF772F8FE
:101C200002003B69D31A022B01D9032346E0254B5E
:101C30001A6880239B041340F0D1224BDA68214BB1
:101C400026490A40DA6038E07B68DB69012B01D164
:101C5000012333E01B4BDB687B617B6903221A4065
:101C60007B681B6A9A4226D17B6970221A407B6886
:101C70005B6A9A421FD17A69FE23DB011A407B68B6
:101C80009B6A1B029A4216D17A69F8239B031A4079
:101C90007B68DB6A9A420ED17A69E0231B051A4001
:101CA0007B681B6B9A4206D17B695B0F5A077B6886
:101CB0005B6B9A4201D0012300E000231800BD466F
:101CC00008B080BD00100240007000408813000082
:101CD000FFFFFFEFFFFFFFFE8C80C111FCFFFEEE58
:101CE00080B584B000AF786039607B68002B01D18B
:101CF0000123E9E0764B1B68072213403A689A42B9
:101D00001ED9734B1B68072293431900704B3A6826
:101D10000A431A60FEF7F6FF0300FB6009E0FEF7D6
:101D2000F1FF0200FB68D31A6A4A934201D90323E8
:101D3000CAE0674B1B68072213403A689A42EED10B
:101D40007B681B680222134015D07B681B68042245
:101D5000134006D0604B9A685F4BE021C9010A43EB
:101D60009A605D4B9B685D4A134019007B689A68D6
:101D7000594B0A439A607B681B680122134057D075
:101D80007B685B68012B07D1534B1A6880239B0249
:101D900013402BD1012397E07B685B68022B07D1AE
:101DA0004D4B1A6880239B0413401FD101238BE005
:101DB0007B685B68002B07D1474B1A688023DB00E8
:101DC000134013D101237FE07B685B68032B06D1AE
:101DD000414B1B6E0222134008D1012374E03E4B9D
:101DE000DB6D0222134001D101236DE03A4B9B6869
:101DF0000722934319007B685A68374B0A439A605D
:101E0000FEF780FF0300FB6009E0FEF77BFF0200A6
:101E1000FB68D31A2F4A934201D9032354E02E4B77
:101E20009B6838221A407B685B68DB009A42ECD1E1
:101E3000274B1B68072213403A689A421ED2244B54
:101E40001B68072293431900214B3A680A431A6022
:101E5000FEF758FF0300FB6009E0FEF753FF0200A6
:101E6000FB68D31A1B4A934201D903232CE0184B79
:101E70001B68072213403A689A42EED17B681B68C0
:101E80000422134009D0144B9B68154A13401900D3
:101E90007B68DA68104B0A439A6000F029F8010069
:101EA0000D4B9B681B0A0F221A400E4B9200D35811
:101EB0001F2213400A00DA400B4B1A600B4B1B68C1
:101EC0001800FEF7C3FE03001800BD4604B080BD35
:101ED000002002408813000000100240FFF0FFFFC6
:101EE000FF8FFFFF4844000810000020140000206E
:101EF00080B586B000AF3C4B9B68382213400FD1B1
:101F0000394B1B68DB0A0722134001229A40130059
:101F10003B6039683548FEF7F7F803003B615DE048
:101F2000314B9B6838221340082B02D1304B3B6168
:101F300054E02D4B9B6838221340102B38D12A4B8C
:101F4000DB6803221340FB60274BDB681B09072279
:101F500013400133BB60FB68032B0DD1B9682448E3
:101F6000FEF7D2F8030019001F4BDB681B0A7F2223
:101F700013404B437B610DE0B9681C48FEF7C4F881
:101F800003001900184BDB681B0A7F2213404B43E8
:101F90007B61C046144BDB685B0F072213400133A3
:101FA0007B6079687869FEF7AFF803003B6115E064
:101FB0000D4B9B6838221340202B03D180231B023A
:101FC0003B610BE0084B9B6838221340182B03D170
:101FD000FA23DB013B6101E000233B613B69180010
:101FE000BD4606B080BDC046001002400024F4008B
:101FF00000127A0080B500AF024B1B681800BD4686
:1020000080BDC04610000020B0B500AFFFF7F2FF62
:102010000400FFF73FFB03001A0B054B9200D35857
:102020001F221340DC4023001800BD46B0BDC0464F
:102030008844000880B586B000AF78601323FB1891
:1020400000221A701223FB1800221A707B681A688B
:1020500080239B02134000D1A3E011203B180022F3
:102060001A70B34BDA6B80235B05134010D1B04B71
:10207000DA6BAF4B802149050A43DA63AC4BDA6B6C
:1020800080235B051340BB60BB683B1801221A70BC
:10209000A84B1A68A74B802149000A431A60FEF733
:1020A00031FE0300FB600BE0FEF72CFE0200FB6834
:1020B000D31A022B04D91323FB1803221A7005E04C
:1020C0009C4B1A6880235B001340EDD01323FB1850
:1020D0001B78002B54D1964BDA6DC0239B00134024
:1020E0007B617B69002B19D07B689B6A7A699A4275
:1020F00014D08F4BDB6D904A13407B618C4BDA6DB3
:102100008B4B802149020A43DA65894BDA6D884B93
:102110008A490A40DA65864B7A69DA657B69012269
:10212000134016D0FEF7EEFD0300FB600CE0FEF757
:10213000E9FD0200FB68D31A814A934204D91323B4
:10214000FB1803221A7004E0794BDB6D0222134066
:10215000EDD01323FB181B78002B0AD1744BDB6DD9
:10216000754A134019007B689A6A714B0A43DA6515
:102170000CE01223FB181322BA1812781A7005E02B
:102180001223FB181322BA1812781A701123FB18A5
:102190001B78012B05D1664BDA6B654B69490A4008
:1021A000DA637B681B680122134009D0604B5B6DCA
:1021B0000322934319007B685A685D4B0A435A65B2
:1021C0007B681B681022134009D0594B5B6D5E4A37
:1021D000134019007B689A68554B0A435A657B681F
:1021E0001A6880239B00134009D0514B5B6D574AFE
:1021F000134019007B685A694D4B0A435A657B6846
:102200001A688023DB00134009D0494B5B6D504AAC
:10221000134019007B689A69454B0A435A657B68ED
:102220001B682022134009D0414B5B6D494A134083
:1022300019007B68DA683E4B0A435A657B681A6866
:102240008023DB02134016D0394B5B6D424A1340AA
:1022500019007B68DA69364B0A435A657B68DA698C
:10226000C0231B059A4206D1314BDA68304B8021DE
:1022700049040A43DA607B681A688023DB01134053
:1022800015D02B4B5B6D9B0099087B681A6A284B15
:102290000A435A657B681A6A8023DB059A4206D195
:1022A000234BDA68224B802149020A43DA607B68BB
:1022B0001A6880239B03134016D01D4B5B6D274A81
:1022C000134019007B685A6A194B0A435A657B68A8
:1022D0005A6A8023DB039A4206D1154BDA68144B05
:1022E000802149040A43DA607B681A6880231B0155
:1022F000134016D00E4B5B6D194A134019007B68D2
:102300001A690B4B0A435A657B681A698023DB0103
:102310009A4206D1064BDA68054B802149020A43EE
:10232000DA601223FB181B781800BD4606B080BD8A
:102330000010024000700040FFFCFFFFFFFFFEFFA7
:1023400088130000FFFFFFEFFFF3FFFFFFFFF3FF26
:10235000FFFFCFFFFFCFFFFFFFFFFFF3FFFFBFFF39
:10236000FF3FFFFF80B582B000AF78607B68002B35
:1023700001D1012346E07B6888229B58002B07D1BE
:102380007B688422002199547B681800FEF780FB4B
:102390007B688822242199507B681B681A687B68B7
:1023A0001B6801218A431A607B68180000F06CFCEE
:1023B0000300012B01D1012324E07B689B6A002BE1
:1023C00003D07B68180000F0D7FE7B681B685A6852
:1023D0007B681B680D490A405A607B681B689A68D5
:1023E0007B681B682A218A439A607B681B681A688D
:1023F0007B681B6801210A431A607B68180000F0A3
:102400006FFF03001800BD4602B080BDFFB7FFFF9D
:1024100080B58AB002AFF860B9603B60BB1D1A801E
:10242000FB6888229B58202B00D088E0BB68002BDB
:1024300003D0BB1D1B88002B01D1012380E0FB686A
:102440009A6880235B019A4209D1FB681B69002BC3
:1024500005D1BB680122134001D0012370E0FB6865
:10246000902200219950FB68882221219950FEF783
:1024700049FC03007B61FB68BA1D542112885A5243
:10248000FB68BA1D562112885A52FB689A6880234D
:102490005B019A4208D1FB681B69002B04D1002321
:1024A000FB61BB68BB6103E0BB68FB610023BB61F0
:1024B0002CE07A69F8683B680093130000228021C1
:1024C00000F05CFF031E01D0032339E0FB69002B01
:1024D0000BD1BB691B881A00FB681B68D205D20DA3
:1024E0009A62BB690233BB6107E0FB691A78FB683B
:1024F0001B689A62FB690133FB61FB6856229B5A99
:102500009BB2013B99B2FB6856229952FB68562256
:102510009B5A9BB2002BCCD17A69F8683B68009338
:1025200013000022402100F029FF031E01D00323E5
:1025300006E0FB68882220219950002300E0022356
:102540001800BD4608B080BD80B588B000AFF86007
:10255000B960BB1D1A80FB688C229B58202B4AD186
:10256000BB68002B03D0BB1D1B88002B01D10123AE
:1025700042E0FB689A6880235B019A4209D1FB68BC
:102580001B69002B05D1BB680122134001D0012338
:1025900032E0FB680022DA66FB681B68184A934247
:1025A00020D0FB681B685A6880231B04134019D095
:1025B000EFF310833B613B69FB6101237B617B6926
:1025C00083F31088C046FB681B681A68FB681B68A9
:1025D0008021C9040A431A60FB69BB61BB6983F3AC
:1025E0001088C046BB1D1A88B968FB68180000F047
:1025F0008DFF030000E002231800BD4608B080BD37
:1026000000800040B0B5AAB000AF78607B681B685E
:10261000DB69A422B9180B607B681B681B68A020CB
:1026200039180B607B681B689B689C2439190B6008
:102630001100BB181B68A24A13409822BD182B60DA
:10264000BB181B68002B1AD17B181B682022134073
:1026500015D03B181B682022134005D13B191A687E
:1026600080235B0513400AD07B685B6F002B00D191
:10267000DCE27B685B6F7A6810009847D6E29823AB
:10268000FB181B68002B00D122E19C23FB181B6860
:102690008C4A134006D1A023FB181B688A4A1340BA
:1026A00000D115E1A423FB181B680122134012D0AE
:1026B000A023FB181A6880235B0013400BD07B68B3
:1026C0001B6801221A627B6890229B5801221A43E0
:1026D0007B6890215A50A423FB181B6802221340E8
:1026E00011D09C23FB181B68012213400BD07B6880
:1026F0001B6802221A627B6890229B5804221A43AC
:102700007B6890215A50A423FB181B6804221340B5
:1027100011D09C23FB181B68012213400BD07B684F
:102720001B6804221A627B6890229B5802221A437B
:102730007B6890215A50A423FB181B680822134081
:1027400017D0A023FB181B682022134005D19C231F
:10275000FB181B685B4A13400BD07B681B68082280
:102760001A627B6890229B5808221A437B6890214A
:102770005A50A423FB181A6880231B01134013D05E
:10278000A023FB181A688023DB0413400CD07B685D
:102790001B68802212011A627B6890229B582022BB
:1027A0001A437B6890215A507B6890229B58002BDB
:1027B00000D13DE2A423FB181B682022134015D052
:1027C000A023FB181B682022134006D19C23FB1872
:1027D0001A6880235B05134008D07B685B6F002B71
:1027E00004D07B685B6F7A68100098477B68902202
:1027F0009B5894217A1813607B681B689B68402261
:102800001340402B04D07B181B68282213404CD067
:102810007B68180000F09EFF7B681B689B68402265
:102820001340402B3CD1EFF310833B663B6E90206E
:102830003A18136001237B667B6E83F31088C046D1
:102840007B681B689A687B681B6840218A439A6092
:102850003B181B68BB66BB6E83F31088C0467B6861
:1028600080229B58002B16D07B6880229B58174AE9
:102870009A637B6880229B581800FEF7B1FB031E09
:102880001CD07B6880229B589B6B7A6880215258B1
:102890001000984712E07B68180000F0E1F90DE0A5
:1028A0007B68180000F0DCF908E07B68180000F095
:1028B000D7F97B68902200219950B9E1C046B7E171
:1028C0000F0800000100001020010004213800085A
:1028D0007B68DB6E012B00D03EE1A423FB181B6854
:1028E0001022134000D137E1A023FB181B681022EF
:1028F000134000D130E17B681B6810221A627B68AC
:102900001B689B6840221340402B00D0A4E07B68EA
:1029100080229B581B685A687E217B181A807B187E
:102920001B88002B00D185E17B685C229B5A7A18BA
:1029300012889A4200D37DE17B687A185E21128862
:102940005A527B6880229B581B681B6820221340C8
:1029500070D1EFF310833B633B6BBB6701237B6359
:102960007B6B83F31088C0467B681B681A687B68A2
:102970001B68B4490A401A60BB6FBB63BB6B83F32F
:102980001088C046EFF31083FB63FB6B7B6701236A
:102990003B643B6C83F31088C0467B681B689A6875
:1029A0007B681B6801218A439A607B6F7B647B6C28
:1029B00083F31088C046EFF31083BB64BB6C3B67A6
:1029C0000123FB64FB6C83F31088C0467B681B68A3
:1029D0009A687B681B6840218A439A603B6F3B651D
:1029E0003B6D83F31088C0467B688C222021995070
:1029F0007B680022DA66EFF310837B657B6DFB66F4
:102A00000123BB65BB6D83F31088C0467B681B68E0
:102A10001A687B681B6810218A431A60FB6EFB658D
:102A2000FB6D83F31088C0467B6880229B5818009A
:102A3000FEF774FA7B6802221A677B685C229A5A56
:102A40007B685E215B5A9BB2D31A9AB27B681100F5
:102A5000180000F00DF9EDE07B685C22995A7B6864
:102A60005E229B5A9AB28E203B188A1A1A807B6883
:102A70005E229B5A9BB2002B00D1DDE03B181B88E5
:102A8000002B00D1D8E0EFF31083FB60FB688824B3
:102A90003A19136001233B613B6983F31088C046F8
:102AA0007B681B681A687B681B6867490A401A6064
:102AB0003B191B687B617B6983F31088C046EFF389
:102AC0001083BB61BB6984243A1913600123FB6145
:102AD000FB6983F31088C0467B681B689A687B6833
:102AE0001B685A490A409A603B191B683B623B6A63
:102AF00083F31088C0467B688C22202199507B6824
:102B00000022DA667B6800225A67EFF310837B624B
:102B10007B6A80243A1913600123BB62BB6A83F38A
:102B20001088C0467B681B681A687B681B68102188
:102B30008A431A603B191B68FB62FB6A83F31088A7
:102B4000C0467B6802221A673B181A887B6811000E
:102B5000180000F08DF86FE0A423FB181A6880239A
:102B60005B03134010D09C23FB181A688023DB03FF
:102B7000134009D07B681B68802252031A627B686D
:102B8000180001F0F1FA5AE0A423FB181B68802218
:102B9000134016D0A023FB181B688022134006D1D7
:102BA0009C23FB181A6880231B04134009D07B6800
:102BB0009B6F002B42D07B689B6F7A681000984710
:102BC0003CE0A423FB181B68402213400AD0A0233A
:102BD000FB181B684022134004D07B68180000F0EB
:102BE00036FE2CE0A423FB181A6880231B04134034
:102BF0000BD0A023FB181A688023DB05134004D0F8
:102C00007B68180001F0C0FA19E0A423FB181A68C9
:102C100080235B04134012D0A023FB181B68002BF9
:102C20000DDA7B68180001F0A7FA08E0C04606E05C
:102C3000C04604E0C04602E0C04600E0C046BD46D3
:102C40002AB0B0BDFFFEFFFFDFFEFFFFFEFFFFEF7C
:102C500080B582B000AF7860C046BD4602B080BD8E
:102C600080B582B000AF7860C046BD4602B080BD7E
:102C700080B582B000AF78600A00BB1C1A80C046E5
:102C8000BD4602B080BD0000B0B590B000AF786224
:102C90001A2320229B18DB1900221A707B6A9A687B
:102CA0007B6A1B691A437B6A5B691A437B6ADB692F
:102CB0001343FB637B6A1B681B68C44A13401900FB
:102CC0007B6A1A68FB6B0B4313607B6A1B685B684B
:102CD000BF4A134018007B6AD9687B6A1A680300F0
:102CE0000B4353607B6A9B69FB637B6A1B68B94A31
:102CF000934204D07B6A1B6AFA6B1343FB637B6AC3
:102D00001B689B68B44A134019007B6A1A68FB6B06
:102D10000B4393607B6A1B68DB6A0F2293431800A6
:102D20007B6A596A7B6A1A6803000B43D3627B6A29
:102D30001B68AA4A934231D1A94B5B6D0322134011
:102D4000032B1DD023D8022B0CD020D8002B02D06F
:102D5000012B0ED01BE01B2320229B18DB19002225
:102D60001A7071E01B2320229B18DB1902221A70B3
:102D70006AE01B2320229B18DB1904221A7063E0EF
:102D80001B2320229B18DB1908221A705CE01B23EE
:102D900020229B18DB1910221A7055E07B6A1B68F1
:102DA000904A934206D11B2320229B18DB19002254
:102DB0001A7049E07B6A1B68864A93423ED1884B71
:102DC0005A6DC0231B011340C0221201934227D029
:102DD000C022120193422AD880221201934211D0BC
:102DE00080221201934222D8002B04D08022D200EC
:102DF00093420ED01BE01B2320229B18DB190022DC
:102E00001A7021E01B2320229B18DB1902221A7062
:102E10001AE01B2320229B18DB1904221A7013E0EE
:102E20001B2320229B18DB1908221A700CE01B239D
:102E300020229B18DB1910221A7005E01B23202288
:102E40009B18DB1910221A707B6A1B68614A934237
:102E500000D092E01B2320229B18DB191B78082B43
:102E600015D018DC042B0DD015DC002B02D0022B62
:102E700005D010E0FFF7C8F803007B6314E05A4B5D
:102E80007B6311E0FFF734F803007B630CE08023E1
:102E90001B027B6308E000237B631A2320229B181C
:102EA000DB1901221A70C0467B6B002B00D147E171
:102EB0007B6A5A6A4D4B5200D35A1900786BFDF762
:102EC00023F90300BB627B6A5A6813005B009B18FE
:102ED000BA6A9A4205D37B6A5B681B03BA6A9A4254
:102EE00006D91A2320229B18DB1901221A7027E128
:102EF0007B6BBB610023FB617B6A5A6A3B4B5200D0
:102F0000D35A3B6100237B613A697B69B869F969EF
:102F1000FDF770FA02000B00110E1D020D431402A2
:102F20007B6A5B685B08BB600023FB60B868F9687C
:102F3000001969417B6A5B683B6000237B603A68EB
:102F40007B68FDF757FA02000B0013003B633A6BF6
:102F5000C0239B009A4209D33A6B80235B039A42B9
:102F600004D27B6A1B683A6BDA60E9E01A232022FC
:102F70009B18DB1901221A70E2E07B6ADA69802370
:102F80001B029A4200D083E01B2320229B18DB19EE
:102F90001B78082B15D02BDC042B0DD028DC002B44
:102FA00002D0022B05D023E0FFF72EF803007B634D
:102FB00027E00D4B7B6324E0FEF79AFF03007B6361
:102FC0001FE080231B027B631BE0C046F369FFCF39
:102FD000FFCFFFFF00800040FFF4FF1100380140E9
:102FE00000100240004400400024F400A8440008FF
:102FF00000237B631A2320229B18DB1901221A70FD
:10300000C0467B6B002B00D19AE07B6A5A6A584B12
:103010005200D35A1900786BFDF776F803005A0076
:103020007B6A5B685B08D2187B6A5B6819001000DA
:10303000FDF76AF803003B633B6B0F2B21D93A6B1A
:1030400080235B029A421CD23B6B9AB20E20202452
:103050000319DB190F218A431A803B6B5B089BB273
:103060000722134099B20319DB190219D2191288E9
:103070000A431A807B6A1B680219D2191288DA6027
:103080005EE01A2320229B18DB1901221A7057E0F8
:103090001B2320229B18DB191B78082B15D018DC6A
:1030A000042B0DD015DC002B02D0022B05D010E034
:1030B000FEF7AAFF03007B6314E02E4B7B6311E055
:1030C000FEF716FF03007B630CE080231B027B638B
:1030D00008E000237B631A2320229B18DB190122BE
:1030E0001A70C0467B6B002B2AD07B6A5A6A204B31
:1030F0005200D35A1900786BFDF706F803001A0046
:103100007B6A5B685B08D2187B6A5B6819001000F9
:10311000FCF7FAFF03003B633B6B0F2B0AD93A6BBA
:1031200080235B029A4205D23B6B9AB27B6A1B6892
:10313000DA6005E01A2320229B18DB1901221A709D
:103140007B6A6A22012199527B6A68220121995285
:103150007B6A00225A677B6A00229A671A23202220
:103160009B18DB191B781800BD4610B0B0BDC046D7
:10317000A84400080024F40080B582B000AF786055
:103180007B689B6A012213400BD07B681B685B68DD
:103190004A4A134019007B68DA6A7B681B680A4355
:1031A0005A607B689B6A022213400BD07B681B68C5
:1031B0005B68434A134019007B681A6B7B681B6885
:1031C0000A435A607B689B6A042213400BD07B68D9
:1031D0001B685B683B4A134019007B685A6B7B682D
:1031E0001B680A435A607B689B6A082213400BD015
:1031F0007B681B685B68344A134019007B689A6BD4
:103200007B681B680A435A607B689B6A10221340E4
:103210000BD07B681B689B682C4A134019007B68A5
:10322000DA6B7B681B680A439A607B689B6A202282
:1032300013400BD07B681B689B68254A134019001C
:103240007B681A6C7B681B680A439A607B689B6A80
:10325000402213401DD07B681B685B681D4A1340E9
:1032600019007B685A6C7B681B680A435A607B684C
:103270005A6C80235B039A420BD17B681B685B68A6
:10328000154A134019007B689A6C7B681B680A43D7
:103290005A607B689B6A802213400BD07B681B6856
:1032A0005B680E4A134019007B68DA6C7B681B6808
:1032B0000A435A60C046BD4602B080BDFFFFFDFF15
:1032C000FFFFFEFFFFFFFBFFFF7FFFFFFFEFFFFFA3
:1032D000FFDFFFFFFFFFEFFFFFFF9FFFFFFFF7FF96
:1032E00080B586B002AF78607B689022002199504B
:1032F000FDF708FD0300FB607B681B681B68082264
:103300001340082B0CD1FB688022910378681A4A7D
:103310000092002200F032F8031E01D0032326E0C1
:103320007B681B681B6804221340042B0CD1FB68CC
:103330008022D1037868104A0092002200F01EF823
:10334000031E01D0032312E07B68882220219950BC
:103350007B688C22202199507B680022DA667B688A
:1033600000221A677B6884220021995400231800E8
:10337000BD4604B080BDC046FFFFFF0180B594B0DC
:1033800000AFF860B9603B60FB1D1A70A7E0BB6D31
:10339000013300D1A3E0FDF7B5FC02003B68D31A6E
:1033A000BA6D9A4202D3BB6D002B3FD1EFF310836D
:1033B000BB62BB6A7B640123FB62FB6A83F31088F8
:1033C000C046FB681B681A68FB681B684E490A40C8
:1033D0001A607B6C3B633B6B83F31088C046EFF352
:1033E00010837B637B6B3B640123BB63BB6B83F309
:1033F0001088C046FB681B689A68FB681B6801213F
:103400008A439A603B6CFB63FB6B83F31088C04676
:10341000FB68882220219950FB688C22202199503A
:10342000FB68842200219954032369E0FB681B6830
:103430001B680422134052D0FB681B68DA698023A2
:103440001B011A4080231B019A4248D1FB681B686C
:10345000802212011A62EFF310833B613B69FB6427
:1034600001237B617B6983F31088C046FB681B687E
:103470001A68FB681B6824490A401A60FB6CBB6130
:10348000BB6983F31088C046EFF31083FB61FB69CF
:10349000BB6401233B623B6A83F31088C046FB6830
:1034A0001B689A68FB681B6801218A439A60BB6CA1
:1034B0007B627B6A83F31088C046FB6888222021E8
:1034C0009950FB688C2220219950FB689022202182
:1034D0009950FB68842200219954032310E0FB6873
:1034E0001B68DB69BA681340BA68D31A5A42534161
:1034F000DBB21A00FB1D1B789A4200D147E700237C
:103500001800BD4614B080BD5FFEFFFF80B598B0C7
:1035100000AFF860B960BB1D1A80FB68BA689A6595
:10352000FB68BA1D5C2112885A52FB68BA1D5E21E5
:1035300012885A52FB6800225A67FB689A688023F7
:103540005B019A420DD1FB681B69002B04D1FB681B
:1035500060227B4999522EE0FB686022FF2199523C
:1035600029E0FB689B68002B0DD1FB681B69002BD1
:1035700004D1FB686022FF2199521CE0FB686022A5
:103580007F21995217E0FB689A6880235B059A4275
:103590000DD1FB681B69002B04D1FB6860227F21E1
:1035A000995208E0FB6860223F21995203E0FB68D2
:1035B000602200219952FB68902200219950FB68FB
:1035C0008C2222219950EFF310833B643B6CFB6506
:1035D00001237B647B6C83F31088C046FB681B6807
:1035E0009A68FB681B6801210A439A60FB6DBB6403
:1035F000BB6C83F31088C046FB685A6E80239B0522
:103600009A4250D1FB6868229B5ABA1D12889A428E
:1036100049D3FB689A6880235B019A4207D1FB6813
:103620001B69002B03D1FB68464A5A6702E0FB681E
:10363000454A5A67FB681B69002B19D0EFF31083CA
:103640007B637B6BBB650123BB63BB6B83F3108820
:10365000C046FB681B681A68FB681B68802149002C
:103660000A431A60BB6DFB63FB6B83F31088C04693
:10367000EFF31083BB62BB6A7B650123FB62FB6ACD
:1036800083F31088C046FB681B689A68FB681B6858
:10369000802149050A439A607B6D3B633B6B83F352
:1036A0001088C04647E0FB689A6880235B019A4215
:1036B00007D1FB681B69002B03D1FB68234A5A67BB
:1036C00002E0FB68224A5A67FB681B69002B19D08D
:1036D000EFF31083FB61FB69FB6401233B623B6AF0
:1036E00083F31088C046FB681B681A68FB681B6878
:1036F000902149000A431A60FB6C7B627B6A83F36A
:10370000108818E0EFF310833B613B693B650123B0
:103710007B617B6983F31088C046FB681B681A686D
:10372000FB681B6820210A431A603B6DBB61BB69C3
:1037300083F31088C04600231800BD4618B080BD32
:10374000FF0100007D3E0008913B00081D3A000883
:10375000A938000880B58EB000AF7860EFF3108311
:103760007B617B697B630123BB61BB6983F3108849
:10377000C0467B681B681A687B681B6826490A403C
:103780001A607B6BFB61FB6983F31088C046EFF323
:1037900010833B623B6A3B6301237B627B6A83F35A
:1037A0001088C0467B681B689A687B681B681B4949
:1037B0000A409A603B6BBB62BB6A83F31088C046C9
:1037C0007B68DB6E012B18D1EFF31083BB60BB6805
:1037D000FB620123FB60FB6883F31088C0467B68B3
:1037E0001B681A687B681B6810218A431A60FB6A91
:1037F0003B613B6983F31088C0467B688C222021A3
:1038000099507B680022DA667B6800225A67C046BE
:10381000BD460EB080BDC046DFFEFFFFFEFFFFEFDE
:1038200080B584B000AF78607B689B6AFB60FB6802
:103830005E2200219952FB68562200219952FB68B2
:103840001800FFF70DFAC046BD4604B080BD80B534
:1038500086B000AF7860EFF31083BB60BB687B611C
:103860000123FB60FB6883F31088C0467B681B68FC
:103870001A687B681B6840218A431A607B693B6138
:103880003B6983F31088C0467B68882220219950C9
:103890007B6800229A677B681800FFF7D9F9C04659
:1038A000BD4606B080BD000080B590B000AF786026
:1038B0003E203B187A686021525A1A807B688C221D
:1038C0009B58222B00D09AE07B681B685A6A3C21E7
:1038D0007B181A807B181B88DAB23B181B88D9B278
:1038E0007B689B6D0A40D2B21A707B689B6D5A1C34
:1038F0007B689A657B685E229B5A9BB2013B99B2BA
:103900007B685E2299527B685E229B5A9BB2002B99
:1039100000D07CE0EFF31083BB61BB69BB63012384
:10392000FB61FB6983F31088C0467B681B681A68DB
:103930007B681B6838490A401A60BB6B3B623B6A74
:1039400083F31088C046EFF310837B627B6A7B634E
:103950000123BB62BB6A83F31088C0467B681B6887
:103960009A687B681B6801218A439A607B6BFB62C3
:10397000FB6A83F31088C0467B688C222021995013
:103980007B6800225A677B6800221A677B68DB6EBF
:10399000012B2FD17B680022DA66EFF31083FB60E6
:1039A000FB683B6301233B613B6983F31088C0469E
:1039B0007B681B681A687B681B6810218A431A6041
:1039C0003B6B7B617B6983F31088C0467B681B6817
:1039D000DB6910221340102B03D17B681B68102277
:1039E0001A627B685C229A5A7B6811001800FFF704
:1039F0003FF90CE07B681800FCF712FE07E07B68DB
:103A00001B689A697B681B6808210A439A61C04653
:103A1000BD4610B080BDC046DFFEFFFF80B590B050
:103A200000AF78603E203B187A686021525A1A80B5
:103A30007B688C229B58222B00D09AE07B681B6805
:103A40005A6A3C217B181A807B689B6DBB637B188C
:103A50003A181B88128813409AB2BB6B1A807B6895
:103A60009B6D9A1C7B689A657B685E229B5A9BB211
:103A7000013B99B27B685E2299527B685E229B5A19
:103A80009BB2002B00D07CE0EFF310837B617B695D
:103A90007B630123BB61BB6983F31088C0467B68ED
:103AA0001B681A687B681B6838490A401A607B6B80
:103AB000FB61FB6983F31088C046EFF310833B6220
:103AC0003B6A3B6301237B627B6A83F31088C046B9
:103AD0007B681B689A687B681B6801218A439A602F
:103AE0003B6BBB62BB6A83F31088C0467B688C2249
:103AF000202199507B6800225A677B6800221A6750
:103B00007B68DB6E012B2FD17B680022DA66EFF336
:103B10001083BB60BB68FB620123FB60FB6883F31F
:103B20001088C0467B681B681A687B681B68102178
:103B30008A431A60FB6A3B613B6983F31088C04685
:103B40007B681B68DB6910221340102B03D17B6854
:103B50001B6810221A627B685C229A5A7B681100EB
:103B60001800FFF785F80CE07B681800FCF758FD9B
:103B700007E07B681B689A697B681B6808210A4319
:103B80009A61C046BD4610B080BDC046DFFEFFFF53
:103B900080B59CB000AF78606A23FB187A6860211A
:103BA000525A1A807B681B68DB69FB667B681B685E
:103BB0001B687B667B681B689B683B667B688C2206
:103BC0009B58222B00D044E15E23FB187A686821C1
:103BD000525A1A80EBE07B681B685A6A5C217B189A
:103BE0001A807B181B88DAB26A23FB181B88D9B2AB
:103BF0007B689B6D0A40D2B21A707B689B6D5A1C21
:103C00007B689A657B685E229B5A9BB2013B99B2A6
:103C10007B685E2299527B681B68DB69FB66FB6EE2
:103C20000722134049D0FB6E0122134010D07A6E58
:103C300080235B0013400BD07B681B6801221A6253
:103C40007B6890229B5801221A437B6890215A502E
:103C5000FB6E022213400FD03B6E012213400BD0AB
:103C60007B681B6802221A627B6890229B580422A0
:103C70001A437B6890215A50FB6E042213400FD0E8
:103C80003B6E012213400BD07B681B6804221A6232
:103C90007B6890229B5802221A437B6890215A50DD
:103CA0007B6890229B58002B07D07B681800FEF79A
:103CB000D7FF7B689022002199507B685E229B5A37
:103CC0009BB2002B73D1EFF31083FB62FB6ABB65E1
:103CD00001233B633B6B83F31088C0467B681B6802
:103CE0001A687B681B6861490A401A60BB6D7B6378
:103CF0007B6B83F31088C046EFF31083BB63BB6B11
:103D00007B650123FB63FB6B83F31088C0467B68F4
:103D10001B689A687B681B6855490A409A607B6DEE
:103D20003B643B6C83F31088C0467B688C22202167
:103D300099507B6800225A677B6800221A677B686B
:103D4000DB6E012B2FD17B680022DA66EFF3108344
:103D50003B623B6A3B6501237B627B6A83F310888D
:103D6000C0467B681B681A687B681B6810218A4301
:103D70001A603B6DBB62BB6A83F31088C0467B68E8
:103D80001B68DB6910221340102B03D17B681B6872
:103D900010221A627B685C229A5A7B681100180014
:103DA000FEF766FF03E07B681800FCF739FC5E2332
:103DB000FB181B88002B04D0FB6E2022134000D080
:103DC00009E74E203B187A685E21525A1A8001009A
:103DD0007B181B88002B44D07B6868229B5A7A187A
:103DE00012889A423DD2EFF31083BB60BB68BB647C
:103DF0000123FB60FB6883F31088C0467B681B6867
:103E00009A687B681B681B490A409A60BB6C3B61DF
:103E10003B6983F31088C0467B68174A5A67EFF303
:103E200010837B617B697B640123BB61BB6983F386
:103E30001088C0467B681B681A687B681B68202155
:103E40000A431A607B6CFB61FB6983F31088C046F0
:103E500007E07B681B689A697B681B6808210A4336
:103E60009A61C046BD461CB080BDC046FFFEFFFF44
:103E7000FEFFFFEFFFFFFFEFA938000880B59EB0FF
:103E800000AF78607223FB187A686021525A1A805A
:103E90007B681B68DB697B677B681B681B68FB664C
:103EA0007B681B689B68BB667B688C229B58222BB7
:103EB00000D044E16623FB187A686821525A1A80C0
:103EC000EBE07B681B685A6A64217B181A807B6868
:103ED0009B6D3B667B187222BA181B8812881340B0
:103EE0009AB23B6E1A807B689B6D9A1C7B689A65C0
:103EF0007B685E229B5A9BB2013B99B27B685E2233
:103F000099527B681B68DB697B677B6F07221340D4
:103F100049D07B6F0122134010D0FA6E80235B00E2
:103F200013400BD07B681B6801221A627B689022C9
:103F30009B5801221A437B6890215A507B6F0222C2
:103F400013400FD0BB6E012213400BD07B681B685F
:103F500002221A627B6890229B5804221A437B68D3
:103F600090215A507B6F042213400FD0BB6E012268
:103F700013400BD07B681B6804221A627B68902276
:103F80009B5802221A437B6890215A507B689022EA
:103F90009B58002B07D07B681800FEF761FE7B68FA
:103FA0009022002199507B685E229B5A9BB2002B85
:103FB00073D1EFF310833B633B6BFB6501237B63A2
:103FC0007B6B83F31088C0467B681B681A687B682C
:103FD0001B6861490A401A60FB6DBB63BB6B83F3CE
:103FE0001088C046EFF31083FB63FB6BBB650123B6
:103FF0003B643B6C83F31088C0467B681B689A68FF
:104000007B681B6855490A409A60BB6D7B647B6C7A
:1040100083F31088C0467B688C22202199507B68EE
:1040200000225A677B6800221A677B68DB6E012BCF
:104030002FD17B680022DA66EFF310837B627B6A04
:104040007B650123BB62BB6A83F31088C0467B6833
:104050001B681A687B681B6810218A431A607B6D95
:10406000FB62FB6A83F31088C0467B681B68DB69D0
:1040700010221340102B03D17B681B6810221A6298
:104080007B685C229A5A7B6811001800FEF7F0FDED
:1040900003E07B681800FCF7C3FA6623FB181B8853
:1040A000002B04D07B6F2022134000D009E7522060
:1040B0003B187A685E21525A1A8001007B181B88CF
:1040C000002B44D07B6868229B5A7A1812889A4247
:1040D0003DD2EFF31083FB60FB68FB6401233B617F
:1040E0003B6983F31088C0467B681B689A687B68CD
:1040F0001B681B490A409A60FB6C7B617B6983F3F8
:104100001088C0467B68174A5A67EFF31083BB617B
:10411000BB69BB640123FB61FB6983F31088C04664
:104120007B681B681A687B681B6820210A431A6039
:10413000BB6C3B623B6A83F31088C04607E07B6838
:104140001B689A697B681B6808210A439A61C0460C
:10415000BD461EB080BDC046FFFEFFFFFEFFFFEF65
:10416000FFFFFFEF1D3A000880B582B000AF786016
:10417000C046BD4602B080BD80B582B000AF786059
:10418000C046BD4602B080BD80B582B000AF786049
:10419000C046BD4602B080BD80B584B000AF786037
:1041A0007B6884229B5C012B01D1022327E07B6882
:1041B0008422012199547B688822242199507B68AC
:1041C0001B681B68FB607B681B681A687B681B6840
:1041D00001218A431A60FB680B4A1340FB607B682D
:1041E00000225A667B681B68FA681A607B6888221E
:1041F000202199507B6884220021995400231800C3
:10420000BD4604B080BDC046FFFFFFDF80B584B06F
:1042100000AF786039607B6884229B5C012B01D100
:1042200002232EE07B688422012199547B68882236
:10423000242199507B681B681B68FB607B681B68A6
:104240001A687B681B6801218A431A607B681B68B7
:104250009B68DB00D9087B681B683A680A439A6050
:104260007B68180000F054F87B681B68FA681A60D5
:104270007B688822202199507B68842200219954F0
:1042800000231800BD4604B080BD000080B584B096
:1042900000AF786039607B6884229B5C012B01D180
:1042A00002232FE07B688422012199547B688822B5
:1042B000242199507B681B681B68FB607B681B6826
:1042C0001A687B681B6801218A431A607B681B6837
:1042D0009B680E4A134019007B681B683A680A43C2
:1042E0009A607B68180000F013F87B681B68FA6816
:1042F0001A607B688822202199507B6884220021E3
:10430000995400231800BD4604B080BDFFFFFFF1A3
:10431000F0B585B000AF78607B685B6E002B08D18C
:104320007B686A22012199527B6868220121995297
:1043300043E00F26BB1908221A700E203B180822F2
:104340001A707B681B689B685B0EDAB20D243B1900
:1043500007210A401A707B681B689B685B0FDAB202
:104360000C257B1907210A401A703B181B787A1913
:10437000127814498A5C5A4310007B191B78124A40
:10438000D35C1900FBF74AFF030099B27B686A22ED
:104390009952BB191B783A1912780A498A5C5A4318
:1043A00010003B191B78084AD35C1900FBF736FF55
:1043B000030099B27B6868229952C046BD4605B099
:1043C000F0BDC046C0440008C844000870B50026CF
:1043D0000C4D0D4C641BA410A64209D1002600F020
:1043E00021F80A4D0A4C641BA410A64205D170BDE9
:1043F000B300EB5898470136EEE7B300EB58984707
:104400000136F2E7D8440008D8440008D844000830
:10441000DC44000803008218934200D170471970F1
:104420000133F9E7F8B5C046F8BC08BC9E467047B2
:0C443000F8B5C046F8BC08BC9E467047BA
:10443C003E3E00003C3C0D0A000000000000000065
:10444C000000000000000000000000000000000060
:10445C00000000000000000000000000010000004F
:10446C000200000003000000040000000600000031
:10447C000700000008000000090000000000000018
:10448C00000000000000000000000000010000001F
:10449C000200000003000000040000000100020004
:1044AC000400060008000A000C0010002000400068
:1044BC00800000010101010307010000080402044F
:0444CC0008010101E1
:0844D00064BFFF7F0100000042
:0444D800E9000008EF
:0444DC00C100000813
:1044E00048656C6C6F2066726F6D2053544D0D0AD9
:0C44F0000024F4000400000001000000A3
:0400000508000BB92B
:00000001FF
